{
  "_format": "hh3-artifact-1",
  "contractName": "BountyJudge",
  "sourceName": "contracts/BountyJudge.sol",
  "abi": [
    {
      "inputs": [],
      "name": "AlreadyCommitted",
      "type": "error"
    },
    {
      "inputs": [],
      "name": "AlreadyFinalized",
      "type": "error"
    },
    {
      "inputs": [],
      "name": "AlreadyJudged",
      "type": "error"
    },
    {
      "inputs": [],
      "name": "AlreadyRevealed",
      "type": "error"
    },
    {
      "inputs": [],
      "name": "BadDeadlines",
      "type": "error"
    },
    {
      "inputs": [],
      "name": "BountyMissing",
      "type": "error"
    },
    {
      "inputs": [],
      "name": "CommitmentMismatch",
      "type": "error"
    },
    {
      "inputs": [],
      "name": "IndexOutOfRange",
      "type": "error"
    },
    {
      "inputs": [],
      "name": "JudgingNotOpen",
      "type": "error"
    },
    {
      "inputs": [],
      "name": "NotCreator",
      "type": "error"
    },
    {
      "inputs": [],
      "name": "NotJudged",
      "type": "error"
    },
    {
      "inputs": [],
      "name": "NothingToReveal",
      "type": "error"
    },
    {
      "inputs": [],
      "name": "RevealClosed",
      "type": "error"
    },
    {
      "inputs": [],
      "name": "RevealNotOpen",
      "type": "error"
    },
    {
      "inputs": [],
      "name": "SubmissionClosed",
      "type": "error"
    },
    {
      "inputs": [],
      "name": "WinnerNotRevealed",
      "type": "error"
    },
    {
      "anonymous": false,
      "inputs": [
        {
          "indexed": true,
          "internalType": "uint256",
          "name": "bountyId",
          "type": "uint256"
        },
        {
          "indexed": true,
          "internalType": "address",
          "name": "participant",
          "type": "address"
        }
      ],
      "name": "AnswerRevealed",
      "type": "event"
    },
    {
      "anonymous": false,
      "inputs": [
        {
          "indexed": true,
          "internalType": "uint256",
          "name": "bountyId",
          "type": "uint256"
        },
        {
          "indexed": true,
          "internalType": "address",
          "name": "creator",
          "type": "address"
        },
        {
          "indexed": false,
          "internalType": "uint64",
          "name": "submissionDeadline",
          "type": "uint64"
        },
        {
          "indexed": false,
          "internalType": "uint64",
          "name": "revealDeadline",
          "type": "uint64"
        }
      ],
      "name": "BountyCreated",
      "type": "event"
    },
    {
      "anonymous": false,
      "inputs": [
        {
          "indexed": true,
          "internalType": "uint256",
          "name": "bountyId",
          "type": "uint256"
        },
        {
          "indexed": true,
          "internalType": "address",
          "name": "participant",
          "type": "address"
        },
        {
          "indexed": false,
          "internalType": "bytes32",
          "name": "commitment",
          "type": "bytes32"
        }
      ],
      "name": "CommitmentSubmitted",
      "type": "event"
    },
    {
      "anonymous": false,
      "inputs": [
        {
          "indexed": true,
          "internalType": "uint256",
          "name": "bountyId",
          "type": "uint256"
        },
        {
          "indexed": false,
          "internalType": "bytes32",
          "name": "judgeInputHash",
          "type": "bytes32"
        },
        {
          "indexed": false,
          "internalType": "uint256",
          "name": "revealedCount",
          "type": "uint256"
        }
      ],
      "name": "Judged",
      "type": "event"
    },
    {
      "anonymous": false,
      "inputs": [
        {
          "indexed": true,
          "internalType": "uint256",
          "name": "bountyId",
          "type": "uint256"
        },
        {
          "indexed": false,
          "internalType": "uint256",
          "name": "winnerIndex",
          "type": "uint256"
        },
        {
          "indexed": true,
          "internalType": "address",
          "name": "winner",
          "type": "address"
        }
      ],
      "name": "WinnerFinalized",
      "type": "event"
    },
    {
      "inputs": [
        {
          "internalType": "string",
          "name": "answer",
          "type": "string"
        },
        {
          "internalType": "bytes32",
          "name": "salt",
          "type": "bytes32"
        },
        {
          "internalType": "address",
          "name": "sender",
          "type": "address"
        },
        {
          "internalType": "uint256",
          "name": "bountyId",
          "type": "uint256"
        }
      ],
      "name": "computeCommitment",
      "outputs": [
        {
          "internalType": "bytes32",
          "name": "",
          "type": "bytes32"
        }
      ],
      "stateMutability": "pure",
      "type": "function"
    },
    {
      "inputs": [
        {
          "internalType": "string",
          "name": "prompt",
          "type": "string"
        },
        {
          "internalType": "uint64",
          "name": "submissionDeadline",
          "type": "uint64"
        },
        {
          "internalType": "uint64",
          "name": "revealDeadline",
          "type": "uint64"
        }
      ],
      "name": "createBounty",
      "outputs": [
        {
          "internalType": "uint256",
          "name": "bountyId",
          "type": "uint256"
        }
      ],
      "stateMutability": "nonpayable",
      "type": "function"
    },
    {
      "inputs": [
        {
          "internalType": "uint256",
          "name": "bountyId",
          "type": "uint256"
        },
        {
          "internalType": "uint256",
          "name": "winnerIndex",
          "type": "uint256"
        }
      ],
      "name": "finalizeWinner",
      "outputs": [],
      "stateMutability": "nonpayable",
      "type": "function"
    },
    {
      "inputs": [
        {
          "internalType": "uint256",
          "name": "bountyId",
          "type": "uint256"
        }
      ],
      "name": "getBounty",
      "outputs": [
        {
          "internalType": "address",
          "name": "creator",
          "type": "address"
        },
        {
          "internalType": "string",
          "name": "prompt",
          "type": "string"
        },
        {
          "internalType": "uint64",
          "name": "submissionDeadline",
          "type": "uint64"
        },
        {
          "internalType": "uint64",
          "name": "revealDeadline",
          "type": "uint64"
        },
        {
          "internalType": "bool",
          "name": "judged",
          "type": "bool"
        },
        {
          "internalType": "bool",
          "name": "finalized",
          "type": "bool"
        },
        {
          "internalType": "uint256",
          "name": "winnerIndex",
          "type": "uint256"
        },
        {
          "internalType": "uint256",
          "name": "participantCount",
          "type": "uint256"
        }
      ],
      "stateMutability": "view",
      "type": "function"
    },
    {
      "inputs": [
        {
          "internalType": "uint256",
          "name": "bountyId",
          "type": "uint256"
        }
      ],
      "name": "getParticipants",
      "outputs": [
        {
          "internalType": "address[]",
          "name": "",
          "type": "address[]"
        }
      ],
      "stateMutability": "view",
      "type": "function"
    },
    {
      "inputs": [
        {
          "internalType": "uint256",
          "name": "bountyId",
          "type": "uint256"
        },
        {
          "internalType": "address",
          "name": "participant",
          "type": "address"
        }
      ],
      "name": "getSubmission",
      "outputs": [
        {
          "internalType": "bytes32",
          "name": "commitment",
          "type": "bytes32"
        },
        {
          "internalType": "bool",
          "name": "revealed",
          "type": "bool"
        },
        {
          "internalType": "string",
          "name": "answer",
          "type": "string"
        }
      ],
      "stateMutability": "view",
      "type": "function"
    },
    {
      "inputs": [
        {
          "internalType": "uint256",
          "name": "bountyId",
          "type": "uint256"
        }
      ],
      "name": "getWinner",
      "outputs": [
        {
          "internalType": "address",
          "name": "winner",
          "type": "address"
        },
        {
          "internalType": "string",
          "name": "answer",
          "type": "string"
        }
      ],
      "stateMutability": "view",
      "type": "function"
    },
    {
      "inputs": [
        {
          "internalType": "uint256",
          "name": "bountyId",
          "type": "uint256"
        },
        {
          "internalType": "bytes",
          "name": "llmInput",
          "type": "bytes"
        }
      ],
      "name": "judgeAll",
      "outputs": [],
      "stateMutability": "nonpayable",
      "type": "function"
    },
    {
      "inputs": [],
      "name": "nextBountyId",
      "outputs": [
        {
          "internalType": "uint256",
          "name": "",
          "type": "uint256"
        }
      ],
      "stateMutability": "view",
      "type": "function"
    },
    {
      "inputs": [
        {
          "internalType": "uint256",
          "name": "bountyId",
          "type": "uint256"
        },
        {
          "internalType": "string",
          "name": "answer",
          "type": "string"
        },
        {
          "internalType": "bytes32",
          "name": "salt",
          "type": "bytes32"
        }
      ],
      "name": "revealAnswer",
      "outputs": [],
      "stateMutability": "nonpayable",
      "type": "function"
    },
    {
      "inputs": [
        {
          "internalType": "uint256",
          "name": "bountyId",
          "type": "uint256"
        },
        {
          "internalType": "bytes32",
          "name": "commitment",
          "type": "bytes32"
        }
      ],
      "name": "submitCommitment",
      "outputs": [],
      "stateMutability": "nonpayable",
      "type": "function"
    }
  ],
  "bytecode": "0x608060405234801561000f575f80fd5b506112438061001d5f395ff3fe608060405234801561000f575f80fd5b50600436106100a6575f3560e01c8063cb655fb61161006e578063cb655fb61461014c578063d5198a711461015f578063d8964ee914610172578063e6a3d9dc14610185578063ee8c4bbf14610198578063fd14fad4146101bf575f80fd5b80634129b2c9146100aa57806355f0e221146100d45780635a7722f1146100f65780636da595c51461010b578063c1e3bd3e1461012c575b5f80fd5b6100bd6100b8366004610cbb565b6101c7565b6040516100cb929190610d15565b60405180910390f35b6100e76100e2366004610d5b565b6102e1565b6040516100cb93929190610d85565b610109610104366004610dae565b6103b3565b005b61011e610119366004610e28565b610567565b6040519081526020016100cb565b61013f61013a366004610cbb565b610680565b6040516100cb9190610e88565b61011e61015a366004610ed4565b6106ec565b61010961016d366004610f33565b610727565b610109610180366004610f81565b6108d3565b610109610193366004610dae565b610a89565b6101ab6101a6366004610cbb565b610ba3565b6040516100cb989796959493929190610fc8565b61011e5f5481565b5f818152600160205260408120600281015460609190600160881b900460ff16610205575f60405180602001604052805f8152509250925050915091565b8060050181600301548154811061021e5761021e611028565b5f9182526020808320909101548683526002825260408084206001600160a01b0390921680855291909252912060010180549194509061025d9061103c565b80601f01602080910402602001604051908101604052809291908181526020018280546102899061103c565b80156102d45780601f106102ab576101008083540402835291602001916102d4565b820191905f5260205f20905b8154815290600101906020018083116102b757829003601f168201915b5050505050915050915091565b5f8281526002602081815260408084206001600160a01b03861685529091528220805491810154600182018054859460609493909260ff9091169181906103279061103c565b80601f01602080910402602001604051908101604052809291908181526020018280546103539061103c565b801561039e5780601f106103755761010080835404028352916020019161039e565b820191905f5260205f20905b81548152906001019060200180831161038157829003601f168201915b50505050509050935093509350509250925092565b5f8281526001602052604090206002810154600160901b900460ff166103ec57604051631319e4cb60e01b815260040160405180910390fd5b80546001600160a01b03163314610416576040516393687c0b60e01b815260040160405180910390fd5b6002810154600160801b900460ff166104425760405163c94618f360e01b815260040160405180910390fd5b6002810154600160881b900460ff161561046f5760405163475a253560e01b815260040160405180910390fd5b6005810154821061049357604051631390f2a160e01b815260040160405180910390fd5b5f8160050183815481106104a9576104a9611028565b5f918252602080832090910154868352600280835260408085206001600160a01b039093168086529290935291909220015490915060ff166104fe5760405163605c0ac360e01b815260040160405180910390fd5b60028201805460ff60881b1916600160881b179055600382018390556040516001600160a01b0382169085907f2e4421a44943f8f99a73869499c35f105f8f7a3141667b9d71eba7338cd793f8906105599087815260200190565b60405180910390a350505050565b5f42836001600160401b03161115806105925750826001600160401b0316826001600160401b031611155b156105af576040516280795960e21b815260040160405180910390fd5b5f805490806105bd83611074565b909155505f81815260016020819052604090912080546001600160a01b0319163317815591925081016105f18688836110f8565b50600281018054600160901b6001600160401b038781166fffffffffffffffffffffffffffffffff199093168317600160401b9188169182021760ff60901b191691909117909255604080519182526020820192909252339184917fc77b4ac4c1bfa30663483524d198dc89d197f1e19b82d15e2e63527b534631ae910160405180910390a350949350505050565b5f818152600160209081526040918290206005018054835181840281018401909452808452606093928301828280156106e057602002820191905f5260205f20905b81546001600160a01b031681526001909101906020018083116106c2575b50505050509050919050565b5f85858585856040516020016107069594939291906111b1565b60405160208183030381529060405280519060200120905095945050505050565b5f8481526001602052604090206002810154600160901b900460ff1661076057604051631319e4cb60e01b815260040160405180910390fd5b60028101546001600160401b031642101561078e576040516366643ff560e11b815260040160405180910390fd5b6002810154600160401b90046001600160401b031642106107c257604051636c4b02a360e11b815260040160405180910390fd5b5f85815260026020818152604080842033855290915290912090810154610100900460ff16610804576040516332cce4d560e11b815260040160405180910390fd5b600281015460ff161561082a5760405163a89ac15160e01b815260040160405180910390fd5b5f858585338a6040516020016108449594939291906111b1565b604051602081830303815290604052805190602001209050815f0154811461087f57604051635054097b60e01b815260040160405180910390fd5b6001820161088e8688836110f8565b5060028201805460ff19166001179055604051339088907f6f30d8f6c98d8fa219bfafa662ad220e3b7d642ea3fe8a284b9692cfcb894edb905f90a350505050505050565b5f8381526001602052604090206002810154600160901b900460ff1661090c57604051631319e4cb60e01b815260040160405180910390fd5b80546001600160a01b03163314610936576040516393687c0b60e01b815260040160405180910390fd5b6002810154600160401b90046001600160401b031642101561096b5760405163e913d81360e01b815260040160405180910390fd5b6002810154600160801b900460ff161561099857604051632e0bff6760e11b815260040160405180910390fd5b60058101545f90815b81811015610a14575f878152600260205260408120600586018054919291849081106109cf576109cf611028565b5f9182526020808320909101546001600160a01b0316835282019290925260400190206002015460ff1615610a0c5782610a0881611074565b9350505b6001016109a1565b5060028301805460ff60801b1916600160801b179055604051610a3a90869086906111fe565b604080519182900382206004860181905582526020820184905287917fbe8f152c171677b0f3c9286772a66cc76ac0a77e3fc8bdb6969c5df885fe8170910160405180910390a2505050505050565b5f8281526001602052604090206002810154600160901b900460ff16610ac257604051631319e4cb60e01b815260040160405180910390fd5b60028101546001600160401b03164210610aef576040516322f37d7760e21b815260040160405180910390fd5b5f83815260026020818152604080842033855290915290912090810154610100900460ff1615610b32576040516317fd8aab60e31b815260040160405180910390fd5b82815560028101805461ff0019166101001790556005820180546001810182555f91825260209091200180546001600160a01b0319163390811790915560405185907f6459ffc8e2e6aea1e7a6161f54ca96e0b0c83db7191f26ccf5c33e14f7f178c5906105599087815260200190565b5f81815260016020819052604082208054600282015460038301546005840154948401805460609688968796879687968796879694956001600160a01b039094169490936001600160401b0380851694600160401b81049091169360ff600160801b8304811694600160881b909304169290918790610c219061103c565b80601f0160208091040260200160405190810160405280929190818152602001828054610c4d9061103c565b8015610c985780601f10610c6f57610100808354040283529160200191610c98565b820191905f5260205f20905b815481529060010190602001808311610c7b57829003601f168201915b505050505096509850985098509850985098509850985050919395975091939597565b5f60208284031215610ccb575f80fd5b5035919050565b5f81518084525f5b81811015610cf657602081850181015186830182015201610cda565b505f602082860101526020601f19601f83011685010191505092915050565b6001600160a01b03831681526040602082018190525f90610d3890830184610cd2565b949350505050565b80356001600160a01b0381168114610d56575f80fd5b919050565b5f8060408385031215610d6c575f80fd5b82359150610d7c60208401610d40565b90509250929050565b8381528215156020820152606060408201525f610da56060830184610cd2565b95945050505050565b5f8060408385031215610dbf575f80fd5b50508035926020909101359150565b5f8083601f840112610dde575f80fd5b5081356001600160401b03811115610df4575f80fd5b602083019150836020828501011115610e0b575f80fd5b9250929050565b80356001600160401b0381168114610d56575f80fd5b5f805f8060608587031215610e3b575f80fd5b84356001600160401b03811115610e50575f80fd5b610e5c87828801610dce565b9095509350610e6f905060208601610e12565b9150610e7d60408601610e12565b905092959194509250565b602080825282518282018190525f9190848201906040850190845b81811015610ec85783516001600160a01b031683529284019291840191600101610ea3565b50909695505050505050565b5f805f805f60808688031215610ee8575f80fd5b85356001600160401b03811115610efd575f80fd5b610f0988828901610dce565b90965094505060208601359250610f2260408701610d40565b949793965091946060013592915050565b5f805f8060608587031215610f46575f80fd5b8435935060208501356001600160401b03811115610f62575f80fd5b610f6e87828801610dce565b9598909750949560400135949350505050565b5f805f60408486031215610f93575f80fd5b8335925060208401356001600160401b03811115610faf575f80fd5b610fbb86828701610dce565b9497909650939450505050565b6001600160a01b0389168152610100602082018190525f90610fec8382018b610cd2565b6001600160401b03998a16604085015297909816606083015250931515608085015291151560a084015260c083015260e0909101529392505050565b634e487b7160e01b5f52603260045260245ffd5b600181811c9082168061105057607f821691505b60208210810361106e57634e487b7160e01b5f52602260045260245ffd5b50919050565b5f6001820161109157634e487b7160e01b5f52601160045260245ffd5b5060010190565b634e487b7160e01b5f52604160045260245ffd5b601f8211156110f357805f5260205f20601f840160051c810160208510156110d15750805b601f840160051c820191505b818110156110f0575f81556001016110dd565b50505b505050565b6001600160401b0383111561110f5761110f611098565b6111238361111d835461103c565b836110ac565b5f601f841160018114611154575f851561113d5750838201355b5f19600387901b1c1916600186901b1783556110f0565b5f83815260208120601f198716915b828110156111835786850135825560209485019460019092019101611163565b508682101561119f575f1960f88860031b161c19848701351681555b505060018560011b0183555050505050565b60808152846080820152848660a08301375f60a086830181019190915260208201949094526001600160a01b039290921660408301526060820152601f909201601f191690910101919050565b818382375f910190815291905056fea2646970667358221220119b9f2ee2d34f81cfd07034a8da2422039e6ad5eed1048e32cfe4e066264a3764736f6c63430008180033",
  "linkReferences": {},
  "deployedLinkReferences": {},
  "immutableReferences": {},
  "inputSourceName": "project/contracts/BountyJudge.sol",
  "buildInfoId": "solc-0_8_24-337000c8c4086693df6fe4162ec0c961880e6a1e"
}