{
  "_format": "hh3-artifact-1",
  "contractName": "RitualAuditor",
  "sourceName": "contracts/RitualAuditor.sol",
  "abi": [
    {
      "inputs": [
        {
          "internalType": "uint256",
          "name": "initialFee",
          "type": "uint256"
        },
        {
          "internalType": "address",
          "name": "initialOwner",
          "type": "address"
        }
      ],
      "stateMutability": "nonpayable",
      "type": "constructor"
    },
    {
      "anonymous": false,
      "inputs": [
        {
          "indexed": true,
          "internalType": "uint256",
          "name": "auditId",
          "type": "uint256"
        },
        {
          "indexed": false,
          "internalType": "string",
          "name": "report",
          "type": "string"
        }
      ],
      "name": "AuditCompleted",
      "type": "event"
    },
    {
      "anonymous": false,
      "inputs": [
        {
          "indexed": false,
          "internalType": "uint256",
          "name": "newFee",
          "type": "uint256"
        }
      ],
      "name": "AuditFeeUpdated",
      "type": "event"
    },
    {
      "anonymous": false,
      "inputs": [
        {
          "indexed": true,
          "internalType": "uint256",
          "name": "auditId",
          "type": "uint256"
        },
        {
          "indexed": true,
          "internalType": "address",
          "name": "requester",
          "type": "address"
        }
      ],
      "name": "AuditRequested",
      "type": "event"
    },
    {
      "anonymous": false,
      "inputs": [
        {
          "indexed": true,
          "internalType": "uint256",
          "name": "auditId",
          "type": "uint256"
        },
        {
          "indexed": true,
          "internalType": "address",
          "name": "payer",
          "type": "address"
        },
        {
          "indexed": false,
          "internalType": "uint256",
          "name": "amount",
          "type": "uint256"
        }
      ],
      "name": "FeePaid",
      "type": "event"
    },
    {
      "anonymous": false,
      "inputs": [
        {
          "indexed": true,
          "internalType": "address",
          "name": "previousOwner",
          "type": "address"
        },
        {
          "indexed": true,
          "internalType": "address",
          "name": "newOwner",
          "type": "address"
        }
      ],
      "name": "OwnershipTransferred",
      "type": "event"
    },
    {
      "inputs": [],
      "name": "MAX_CODE_LENGTH",
      "outputs": [
        {
          "internalType": "uint256",
          "name": "",
          "type": "uint256"
        }
      ],
      "stateMutability": "view",
      "type": "function"
    },
    {
      "inputs": [],
      "name": "TREASURY",
      "outputs": [
        {
          "internalType": "address",
          "name": "",
          "type": "address"
        }
      ],
      "stateMutability": "view",
      "type": "function"
    },
    {
      "inputs": [],
      "name": "auditFee",
      "outputs": [
        {
          "internalType": "uint256",
          "name": "",
          "type": "uint256"
        }
      ],
      "stateMutability": "view",
      "type": "function"
    },
    {
      "inputs": [
        {
          "internalType": "uint256",
          "name": "",
          "type": "uint256"
        }
      ],
      "name": "audits",
      "outputs": [
        {
          "internalType": "address",
          "name": "requester",
          "type": "address"
        },
        {
          "internalType": "string",
          "name": "code",
          "type": "string"
        },
        {
          "internalType": "string",
          "name": "report",
          "type": "string"
        },
        {
          "internalType": "bool",
          "name": "completed",
          "type": "bool"
        },
        {
          "internalType": "uint256",
          "name": "timestamp",
          "type": "uint256"
        }
      ],
      "stateMutability": "view",
      "type": "function"
    },
    {
      "inputs": [
        {
          "internalType": "uint256",
          "name": "auditId",
          "type": "uint256"
        }
      ],
      "name": "getAudit",
      "outputs": [
        {
          "internalType": "address",
          "name": "requester",
          "type": "address"
        },
        {
          "internalType": "string",
          "name": "code",
          "type": "string"
        },
        {
          "internalType": "string",
          "name": "report",
          "type": "string"
        },
        {
          "internalType": "bool",
          "name": "completed",
          "type": "bool"
        },
        {
          "internalType": "uint256",
          "name": "timestamp",
          "type": "uint256"
        }
      ],
      "stateMutability": "view",
      "type": "function"
    },
    {
      "inputs": [],
      "name": "nextAuditId",
      "outputs": [
        {
          "internalType": "uint256",
          "name": "",
          "type": "uint256"
        }
      ],
      "stateMutability": "view",
      "type": "function"
    },
    {
      "inputs": [],
      "name": "owner",
      "outputs": [
        {
          "internalType": "address",
          "name": "",
          "type": "address"
        }
      ],
      "stateMutability": "view",
      "type": "function"
    },
    {
      "inputs": [
        {
          "internalType": "string",
          "name": "code",
          "type": "string"
        },
        {
          "internalType": "bytes",
          "name": "llmInput",
          "type": "bytes"
        }
      ],
      "name": "requestAudit",
      "outputs": [
        {
          "internalType": "uint256",
          "name": "auditId",
          "type": "uint256"
        }
      ],
      "stateMutability": "payable",
      "type": "function"
    },
    {
      "inputs": [
        {
          "internalType": "uint256",
          "name": "newFee",
          "type": "uint256"
        }
      ],
      "name": "setAuditFee",
      "outputs": [],
      "stateMutability": "nonpayable",
      "type": "function"
    },
    {
      "inputs": [
        {
          "internalType": "address",
          "name": "newOwner",
          "type": "address"
        }
      ],
      "name": "transferOwnership",
      "outputs": [],
      "stateMutability": "nonpayable",
      "type": "function"
    }
  ],
  "bytecode": "0x608060405234801561000f575f80fd5b506040516111a63803806111a683398101604081905261002e91610097565b6001600160a01b038116156100435780610045565b335b5f80546001600160a01b0319166001600160a01b0392909216918217815560018490556040517f8be0079c531659141344cd1fd0a4f28419497f9722a3daafe3b4186f6b6457e0908290a350506100d1565b5f80604083850312156100a8575f80fd5b825160208401519092506001600160a01b03811681146100c6575f80fd5b809150509250929050565b6110c8806100de5f395ff3fe60806040526004361061008f575f3560e01c80638da5cb5b116100575780638da5cb5b14610160578063b60e73db1461017e578063d1a69cc41461019d578063dc25d595146101b2578063f2fde38b146101c5575f80fd5b80630b66e1671461009357806317bf37a3146100bb5780632d2c5565146100eb5780633d6dfe731461012a57806362ac543e1461013f575b5f80fd5b34801561009e575f80fd5b506100a8612ee081565b6040519081526020015b60405180910390f35b3480156100c6575f80fd5b506100da6100d53660046109d2565b6101e4565b6040516100b2959493929190610a36565b3480156100f6575f80fd5b50610112731bfe607ad53ca8b2b638630865466e7f386a9b8081565b6040516001600160a01b0390911681526020016100b2565b348015610135575f80fd5b506100a860015481565b34801561014a575f80fd5b5061015e6101593660046109d2565b61034e565b005b34801561016b575f80fd5b505f54610112906001600160a01b031681565b348015610189575f80fd5b506100da6101983660046109d2565b6103d3565b3480156101a8575f80fd5b506100a860025481565b6100a86101c0366004610ac5565b61051b565b3480156101d0575f80fd5b5061015e6101df366004610b2c565b61081d565b5f8181526003602081905260408220805491810154600482015460018301805460609586958895869591946001600160a01b0390931693600286019260ff9092169190849061023290610b59565b80601f016020809104026020016040519081016040528092919081815260200182805461025e90610b59565b80156102a95780601f10610280576101008083540402835291602001916102a9565b820191905f5260205f20905b81548152906001019060200180831161028c57829003601f168201915b505050505093508280546102bc90610b59565b80601f01602080910402602001604051908101604052809291908181526020018280546102e890610b59565b80156103335780601f1061030a57610100808354040283529160200191610333565b820191905f5260205f20905b81548152906001019060200180831161031657829003601f168201915b50505050509250955095509550955095505091939590929450565b5f546001600160a01b031633146103985760405162461bcd60e51b81526020600482015260096024820152683737ba1037bbb732b960b91b60448201526064015b60405180910390fd5b60018190556040518181527fe4fede2d2fad385f085ed81d99a41f178e5d669c98e08664a0aed2373d6050909060200160405180910390a150565b60036020525f9081526040902080546001820180546001600160a01b0390921692916103fe90610b59565b80601f016020809104026020016040519081016040528092919081815260200182805461042a90610b59565b80156104755780601f1061044c57610100808354040283529160200191610475565b820191905f5260205f20905b81548152906001019060200180831161045857829003601f168201915b50505050509080600201805461048a90610b59565b80601f01602080910402602001604051908101604052809291908181526020018280546104b690610b59565b80156105015780601f106104d857610100808354040283529160200191610501565b820191905f5260205f20905b8154815290600101906020018083116104e457829003601f168201915b505050506003830154600490930154919260ff1691905085565b5f836105565760405162461bcd60e51b815260206004820152600a602482015269656d70747920636f646560b01b604482015260640161038f565b612ee08411156105985760405162461bcd60e51b815260206004820152600d60248201526c636f646520746f6f206c6f6e6760981b604482015260640161038f565b6001543410156105dd5760405162461bcd60e51b815260206004820152601060248201526f696e73756666696369656e742066656560801b604482015260640161038f565b60028054905f6105ec83610b91565b909155505f81815260036020526040902080546001600160a01b031916331781559091506001810161061f868883610c15565b50426004820155604051339083907f7d65d1a545fc51795f27e07c6d5a573e39a26d0cfa13194ef03bc55eb4b9c8a8905f90a33415610730576040515f90731bfe607ad53ca8b2b638630865466e7f386a9b809034908381818185875af1925050503d805f81146106ab576040519150601f19603f3d011682016040523d82523d5f602084013e6106b0565b606091505b50509050806106f75760405162461bcd60e51b8152602060048201526013602482015272199959481d1c985b9cd9995c8819985a5b1959606a1b604482015260640161038f565b604051348152339084907f6fe296e805108cd514fea415210be4016149b01eeb08effbe130951b6a5f6c0b9060200160405180910390a3505b5f61077261080286868080601f0160208091040260200160405190810160405280939291908181526020018383808284375f920191909152506108fe92505050565b90505f805f8380602001905181019061078b9190610dfe565b5093505092509250821581906107b45760405162461bcd60e51b815260040161038f9190610ebb565b50600285016107c38382610ecd565b5060038501805460ff1916600117905560405186907f9da36e70d60d4c3c959f22085ec169a487cd3c1a44fb570bd06bc1f53d75f46a90610808906002890190610f8d565b60405180910390a25050505050949350505050565b5f546001600160a01b031633146108625760405162461bcd60e51b81526020600482015260096024820152683737ba1037bbb732b960b91b604482015260640161038f565b6001600160a01b0381166108a55760405162461bcd60e51b815260206004820152600a6024820152693d32b9379037bbb732b960b11b604482015260640161038f565b5f80546040516001600160a01b03808516939216917f8be0079c531659141344cd1fd0a4f28419497f9722a3daafe3b4186f6b6457e091a35f80546001600160a01b0319166001600160a01b0392909216919091179055565b60605f80846001600160a01b03168460405161091a9190611017565b5f604051808303815f865af19150503d805f8114610953576040519150601f19603f3d011682016040523d82523d5f602084013e610958565b606091505b50915091508161096a57805160208201fd5b6001600160a01b038516610801148061098d57506001600160a01b038516610802145b806109a257506001600160a01b03851661081b145b156109c8575f818060200190518101906109bc9190611032565b94506109cc9350505050565b9150505b92915050565b5f602082840312156109e2575f80fd5b5035919050565b5f5b83811015610a035781810151838201526020016109eb565b50505f910152565b5f8151808452610a228160208601602086016109e9565b601f01601f19169290920160200192915050565b6001600160a01b038616815260a0602082018190525f90610a5990830187610a0b565b8281036040840152610a6b8187610a0b565b94151560608401525050608001529392505050565b5f8083601f840112610a90575f80fd5b50813567ffffffffffffffff811115610aa7575f80fd5b602083019150836020828501011115610abe575f80fd5b9250929050565b5f805f8060408587031215610ad8575f80fd5b843567ffffffffffffffff80821115610aef575f80fd5b610afb88838901610a80565b90965094506020870135915080821115610b13575f80fd5b50610b2087828801610a80565b95989497509550505050565b5f60208284031215610b3c575f80fd5b81356001600160a01b0381168114610b52575f80fd5b9392505050565b600181811c90821680610b6d57607f821691505b602082108103610b8b57634e487b7160e01b5f52602260045260245ffd5b50919050565b5f60018201610bae57634e487b7160e01b5f52601160045260245ffd5b5060010190565b634e487b7160e01b5f52604160045260245ffd5b601f821115610c1057805f5260205f20601f840160051c81016020851015610bee5750805b601f840160051c820191505b81811015610c0d575f8155600101610bfa565b50505b505050565b67ffffffffffffffff831115610c2d57610c2d610bb5565b610c4183610c3b8354610b59565b83610bc9565b5f601f841160018114610c72575f8515610c5b5750838201355b5f19600387901b1c1916600186901b178355610c0d565b5f83815260208120601f198716915b82811015610ca15786850135825560209485019460019092019101610c81565b5086821015610cbd575f1960f88860031b161c19848701351681555b505060018560011b0183555050505050565b5f82601f830112610cde575f80fd5b815167ffffffffffffffff80821115610cf957610cf9610bb5565b604051601f8301601f19908116603f01168101908282118183101715610d2157610d21610bb5565b81604052838152866020858801011115610d39575f80fd5b610d4a8460208301602089016109e9565b9695505050505050565b5f60608284031215610d64575f80fd5b6040516060810167ffffffffffffffff8282108183111715610d8857610d88610bb5565b816040528293508451915080821115610d9f575f80fd5b610dab86838701610ccf565b83526020850151915080821115610dc0575f80fd5b610dcc86838701610ccf565b60208401526040850151915080821115610de4575f80fd5b50610df185828601610ccf565b6040830152505092915050565b5f805f805f60a08688031215610e12575f80fd5b85518015158114610e21575f80fd5b602087015190955067ffffffffffffffff80821115610e3e575f80fd5b610e4a89838a01610ccf565b95506040880151915080821115610e5f575f80fd5b610e6b89838a01610ccf565b94506060880151915080821115610e80575f80fd5b610e8c89838a01610ccf565b93506080880151915080821115610ea1575f80fd5b50610eae88828901610d54565b9150509295509295909350565b602081525f610b526020830184610a0b565b815167ffffffffffffffff811115610ee757610ee7610bb5565b610efb81610ef58454610b59565b84610bc9565b602080601f831160018114610f2e575f8415610f175750858301515b5f19600386901b1c1916600185901b178555610f85565b5f85815260208120601f198616915b82811015610f5c57888601518255948401946001909101908401610f3d565b5085821015610f7957878501515f19600388901b60f8161c191681555b505060018460011b0185555b505050505050565b5f60208083525f8454610f9f81610b59565b806020870152604060018084165f8114610fc05760018114610fdc57611009565b60ff19851660408a0152604084151560051b8a01019550611009565b895f5260205f205f5b858110156110005781548b8201860152908301908801610fe5565b8a016040019650505b509398975050505050505050565b5f82516110288184602087016109e9565b9190910192915050565b5f8060408385031215611043575f80fd5b825167ffffffffffffffff8082111561105a575f80fd5b61106686838701610ccf565b9350602085015191508082111561107b575f80fd5b5061108885828601610ccf565b915050925092905056fea264697066735822122004a8ccc2056d1b877ce75650e8a149d6922b761d10ed321e19a7beec003d112a64736f6c63430008180033",
  "linkReferences": {},
  "deployedLinkReferences": {},
  "immutableReferences": {},
  "inputSourceName": "project/contracts/RitualAuditor.sol",
  "buildInfoId": "solc-0_8_24-f26d69ec85d3e787894f03e3744245d9fd2a4cb0"
}